:100000000200A779FF7AFFDAFED9FA22C295C296DA
:10001000D297F5B01103C29722D295C296D297F526
:10002000B0C297227438110C740E110C7401110CAB
:100030007406110C22E49360051119A380F7227451
:1000400001110C11032275F06484FCE5F075F00ACF
:1000500084FDAEF0EC600424301119ED600624300C
:1000600011198009EC7006743011198005EE2430E6
:10007000111922F5F0C4540F11851119E5F0540F30
:100080001185111922C082C0839001A593D083D01D
:1000900082227A057B2800DBFDDAF92200000000CD
:1000A00000000000000022758901C28C758A00756D
:1000B0008C00C2A0C2A1C2A2C2A3C2A4C2A5C2A6F1
:1000C000C2A7C291C290C295C296C29775B00011E4
:1000D0002490018911351192113FD291119CC29146
:1000E0003090FDC28DC28CD28C20900ED8FBD9F9F5
:1000F0008002C293C28CD29380E02090FDC28DC258
:100100008C9001811135E58C1173E58A1173E58AB4
:03011000F8E58C83
:10011300F9888289837F00C3E5829435F582E5837C
:100123009400F58340030F80EE74C0110C90019A84
:100133001135EF114675A000EFB40A02D2A0403387
:10014300D2A0B41402D2A1402AD2A1B41E02D2A2D8
:100153004021D2A2B42802D2A34018D2A3B43202BF
:10016300D2A4400FD2A4B43C02D2A54006D2A5D259
:10017300A6D2A7758A00758C00113F0200DA50756C
:100183006C73653A200050726F6772616D2053740F
:10019300617274696E670044697374616E63653A72
:1001A3002000303132333435363738394142434415
:0201B3004546BF
:00000001FF
