:1017600044697374616E636500252E326600202023
:05177000636D20200064
:10177500758AF5758CFFD28C308DFDC28CC28D2299
:0817AD00758901C28DC28C2276
:0817B500D2A6121775C2A6228C
:101601001217407BFF7A1779607D017F01121697CF
:101611001217AD1217B530A7FDD28C30A703308D4C
:10162100FAC28CE4F53BF53A7539C07538C0FFFE56
:101631007D207C411214507B807A5F7911784712AA
:1016410008008F298E288D278C26AF8CEFAD8AFC60
:10165100EC12090B8F258E248D238C227537FF7593
:1016610038177539698F3D8E3C8D3B8C3A7B007AFA
:1016710000792A120F087B007A00792A7D017F0206
:101681001216977BFF7A17796E1216C67F647E0059
:061691001216F902161406
:0816F100C2A1D2A27F017E001C
:1016F900E4FDFCC3ED9FEC9E5015E4FBFA0BBB0027
:0F170900010AEB64704A70F50DBD00010C80E41D
:0117180022AE
:0E1785008F90C2A01216F1C2A27F030216F9C5
:0E1793008F90D2A01216F1C2A27F030216F9A7
:0616C6008B398A3A893BD2
:1016CC00E4F53CF53DAB39AA3AA93B853D82853C16
:1016DC0083120E09FF600D121793053DE53D70E571
:0416EC00053C80E158
:0116F00022D7
:101697008F348D358B368A378938E534B40108E5C0
:1016A70035540F4480800BE534B4020AE535540FF6
:0F16B70044C0FF121785AB36AA37A9380216C6F2
:101740007F327E001216F97F381217857F0C121730
:10175000857F011217857F061217857F8002178506
:10080000EC4D6011E8497017ED33EC3304600DE4F2
:10081000FCFFFEFD22E933E8330470F80209791287
:10082000094458046009E4CC248150062850090288
:100830000983284003020980C0E0EB4A7044B98074
:1008400006D0E0FB02096FEF4E701CBD8008EBFF85
:10085000EAFEE9FD80EBE98DF0A4FEE5F00208E98F
:10086000E9CDF9EAFEEBFFEF89F0A4FCE5F0CE89D3
:10087000F0A42EFFE435F0CD89F0A42DFEE435F090
:100880008067EF4E7005BD80D780C3EF8BF0A4ACBE
:10089000F0EE8BF0A42CFCE435F0F8EF8AF0A42CF9
:1008A000E5F038FCE433CB8DF0A42CFCE5F03BF80C
:1008B000EE8AF0A42CFCE5F038F8E433CF89F0A4FC
:1008C0002CFCE5F038CF3400CE89F0A42FFFE5F002
:1008D0003EFEE433C98DF0A42EFEE5F039CD8AF05A
:1008E000A42FFFE5F03EFEE43DFD33D0E0FB5007D2
:1008F0000BBB000F020983EC2CFCEF33FFEE33FE41
:06090000ED33FD02095B6E
:1009060075F020800E75F010800575F0087D007E6C
:10091600007F003392D530D503120E48EC334010D9
:10092600EF33FFEE33FEED33FDEC33FCD5F0ED2275
:0E093600E5F0247EA2D513CC92E7CDCEFF22B1
:100EAC00E54B2437F8E6054B2278343007027837C7
:100EBC00E475F001120E76020DF02000EB7F2ED2BD
:100ECC00008018EF540F2490D43440D4FF30040B1E
:100EDC00EF24BFB41A0050032461FFE54C600215E7
:100EEC004C054FE54F7002054E30070D7834E47514
:100EFC00F001120E76EF020E360217197403D207A8
:100F0C008003E4C207F54B8B348A358936E4F54C03
:100F1C00F54EF54FE54C60077F20120EE780F57516
:100F2C004DFFC201C200C202C203C205C206C20802
:100F3C00120EB5FF700D3007057F00120EF8AF4F83
:100F4C00AE4E22B4255FC2D5C204120EB5FF24D01A
:100F5C00B40A00501A75F00A784C30D50508B6FF63
:100F6C000106C6A426F620D5047002D20380D9242B
:100F7C00CFB41A00EF5004C2E5D2040211E5D2013D
:100F8C0080C6D20080C0D20280BCD2D580BAD20535
:100F9C0080B47F20120EE72002077401B54C00408C
:100FAC00F1120EACFF120EE7020F20D208D206800F
:100FBC0095120EACFB120EACFA120EACF94A4B7039
:100FCC000679DC7A127BFF20022EE54C602A7E002B
:100FDC008E82758300120E0960060EEE654D70F060
:100FEC00C2D5EBC0E0EAC0E0E9C0E0EE121245D099
:100FFC00E0F9D0E0FAD0E0FB120DF0FF60AAEBC0F4
:10100C00E0EAC0E0E9C0E0120EE7D0E02401F9D03C
:10101C00E03400FAD0E0FBE54D0460DCD54DD9801E
:10102C0087D20280A212122860F7E54D70010412DB
:10103C000B61A94D600DE54D600914F54D1212CFF1
:10104C00EF60F3EA30E702F404C3995077EAF42531
:10105C004D0430E701E404F54D800D12122860C1F7
:10106C00EA054D254D120B61EA784AF630E701E4AA
:10107C00254D04D54D0420050114121245E4C0E0A1
:10108C001212CF784AE6601320E70714F6120ECF3F
:10109C00802204F6D0E014C0E07F00120ECFE54DA4
:1010AC006007120EC6154D800B300503120EC6D00C
:1010BC00E0020F20D0E00480C512122860A0E54D9C
:1010CC0004120B61784AEAF6E54D20050260010432
:0510DC0024041212457E
:1010E10074FF04C0E01212CF120ECFE54D200502AD
:1010F1006003120EC6D0E0B54DE87F45120ED978D7
:101101004AE67F2B30E7047F2DF404C0E0120EE79E
:10111100D0E075F00A84C0F0120ED0D0E0120ED0EB
:10112100020F20791080027908C206C2088008D215
:10113100D5790A8004790AC2D5E54D047002F54DCE
:10114100E4FAFDFEFF120EACFC7B08200113120E27
:10115100ACFD7B1030000A120EACFE120EACFF7B10
:1011610020EC3382D592D55013C3E43000069FFFA3
:10117100E49EFEE42001039DFDE49CFCE4CBF8C267
:1011810001EC700CCFCECDCCE824F8F870F38017C9
:10119100C3EF33FFEE33FEED33FDEC33FCEB33FBFA
:1011A100994002FB0FD8E9EB300105F8D0E0C448C3
:1011B100B201C0E00AEC4D4E4F78207B0070C2EACC
:1011C100B54D0040BCC0E0121247D0F0D0E0200184
:1011D10004C4C0E0C4B201C0F0120ED0D0F0D5F00A
:1011E100EB020F20120E860FBD531124580F8E4CA7
:1011F1000F8A4211284F1130441130490FA3431176
:10120100365510674610C54510314712FC500F92F4
:101211002D0F962E0FB92B0F9A230FB72012E52A07
:101221000F524800000FB1E54DB4FF03754D061292
:101231000EACFC120EACFD120EACFE120EACFF7821
:1012410043020B90790AA2D5200314300509B91085
:10125100020404B9080104A2D520060250010420A9
:1012610002689202B54C005034C0E07F203003196F
:101271007F30A20272067205500F12129EC202C284
:1012810006C205C2087F30800F300503E9C0E012B5
:101291000EE7300503D0E0F9D0E0B54CCC300517AE
:1012A1007F30B9100C120EE77F583004077F788029
:1012B10003B90803120EE73002057F2D020EE77F06
:1012C100202008F87F2B2006F322920280CF7F0096
:1012D100B4070050052443F8E6FF22286E756C6CB4
:1012E1002900D201120EAC3001F8C201784C30D580
:1012F1000108F6020F522D50434958120EAC240337
:10130100B405004001E49012F793120ED8743A121A
:0A1311000ED8D203754C040211241B
:101450008F378E368D358C34E4FFFE7D807C3FAB3C
:1014600037AA36A935A834120AA07009AF37AE36AC
:10147000AD35AC3422AF37AE36AD35AC3412098E53
:10148000FBAF3BAE3AAD39AC3812098EFFBF010855
:10149000E4FFFE7D807C3F22EF64046022EB640465
:1014A000601DBB0127E4FFFEFDFCAB3BAA3AA93956
:1014B000A838120AA060084006E4FFFEFDFC227472
:1014C000FFF53BF53AF539F53802155EE4F53CF5E4
:1014D0003DFFFEFDFCAB37AA36A935A834120AA0A1
:1014E000504BAF3BAE3AAD39AC38120B2A8E3C8F25
:1014F0003DAC3CAD3DEC12090BC8ECC8C9EDC9CA06
:10150000EECACBEFCBAF3BAE3AAD39AC381209AB3C
:10151000E4FBFAF9F8120AA070A5AF37AE36AD3584
:10152000AC34120B198F378E368D358C34AF37AE05
:1015300036AD35AC3412134FAB3BAA3AA939A838B3
:1015400012080012159F8F3B8E3A8D398C38E53D7D
:1015500030E00B120B198F3B8E3A8D398C38AF3B34
:07156000AE3AAD39AC3822B0
:10094400E9D2E7C933E833F892D5EDD2E7CD33ECF9
:0709540033FC5002B2D52272
:10095B00EC30E7100FBF000C0EBE00080DBD0004FD
:10096B000BEB6014A2D5EB13FCED92E7FD2274FFA9
:10097B00FCFDFEFF22E480F8A2D574FF13FC7D8002
:03098B00E480EF16
:10098E00ED33EC33601004700FED547F700574027C
:0A099E0092E0227404220422E422F5
:1009A800020979E86480F8E933E83360110460F0FB
:1009B800ED33EC337009E8FCE9FDEAFEEBFF2204B5
:1009C80060DED3EB9FEA9EE99DE8C2E78CF0C2F7B0
:1009D80095F0400CE8CCF8E9CDF9EACEFAEBCFFB7C
:1009E80012094485D0F05804700320D5B3E8047088
:1009F800075002B2D502098392D5EC0460F7E4CC23
:100A0800C0E0C398F8603B94186008400DD0E0FB44
:100A180002095BE4FBFAC9FC8028E830E406E4C973
:100A2800FBE4CAFCE830E305E4C9CACBFCE8540798
:100A38006010F8C3E913F9EA13FAEB13FBEC13FCA3
:100A4800D8F130F52FC3E49CFCEF9BFFEE9AFEED46
:100A580099FDD0E0FBEF4E4D4C701222DB030209EA
:100A680080EC2CFCEF33FFEE33FEED33FDED30E789
:100A7800EB02095BEF2BFFEE3AFEED39FDD0E0FB10
:100A880050130BBB0003020983ED13FDEE13FEEFB9
:080A980013FFEC13FC02095BE3
:100AA00074F8CC6480CCC86480C8F58204604FC3FD
:100AB000EB9FF5F0EA9E42F0E99D42F0E89C45F09C
:100AC000603C501DE5825FFFE582D313CB5BCBF426
:100AD0002B5582FB50280ABA002409B9002008804F
:100AE0001DE5825BFBE582D313CF5FCFF4C3132FE9
:100AF0005582FF50090EBE00050DBD00010CC3EB71
:100B00009FF5F0EA9E42F0E99D42F0E89C45F060D6
:090B100007CC4820E701B3EC22F8
:100B1900ED33EC33600A047003BD8004ECB2E7FCEA
:010B290022A9
:100B2A00EDD2E7CD33EC3392D524814006E4FFFEC3
:100B3A00FDFC22FCE4CFCECDCC24E0501174FF8022
:100B4A00EDC3CC13CCCD13CDCE13CECF13CF0470BF
:070B5A00F030D5DE020E4869
:100B6100F920E72824F950037907E4F42402FB185B
:100B7100DBFDE624FB5014E9600DE4F618E604F60B
:0F0B8100B40A08E4F6D9F57401F60A22C2D522A7
:100B9000ED33EC3392D5FA602AB4FF33EDC2E77B34
:100BA000FF60067A0B79B5E4227A0B79BE20D50472
:100BB0007A0B79B9224E614E002B494E46002D49E1
:100BC0004E4600E47A08F608DAFC7B00740722E857
:100BD000C0E0ECC0E0EDC0E0EEC0E0EFC0E0EA75E0
:100BE000F010A4CAABF075F04DA42BFBE435F0FC7B
:100BF000EA2410FAEB34C5FBEC34D9FCEDC2E7FF74
:100C000075F056A4F42411C5F0F434C58FF0A42A6D
:100C1000E5F03BE43CF620E714120D63D0E0FFD092
:100C2000E0FED0E0FDD0E0FC120C968014F404123B
:100C30000D63D0E0FFD0E0FED0E0FDD0E0FC120874
:100C400000D0E0F8E6FAEDD2E7CD33EC332482FBB6
:100C5000E4C3CF33CFCE33CECD33CD33DBF37B07FD
:100C600075F00A846004F6081B0AE5F0F6088FF0B8
:100C7000740AA4FFACF08EF0740AA42CFEACF05001
:100C8000010C8DF0740AA42CFDE435F0F608DBDECF
:030C9000740722C4
:1015670033DA929E35B16011377FE5FE39218489E0
:101577003AAEC3FF3C1D955B3D6358473E75FDF092
:101587003F3172183F800000C2D5020983020979F2
:10159700BD80FA50F3020980ED33EC330460F17B30
:1015A7003B7AAA79B8783F120800ED33EC3392D52D
:1015B700247B5011A2D570DB500BED4480240450DE
:1015C70004A2D580CEEFFBEEFAEDF9ECF8120B2A68
:1015D700EFF582F404FC1209101209AFC0829015CE
:1015E700677409120DB2ED33CC33D0F092D525F0E4
:0A15F700A2D57001C313CC13FD222E
:10131B003E9248DA3ECCCCCD3F2AAAAB400000002F
:10132B003F8000003F9837F03FB504F33FD744FCB4
:10133B003E3172173EB172173F0515913EDE5BD9F8
:10134B00D2008002C200EDD2E7F8CD33EC3304704B
:10135B000BBD800592D502098302097940FBD3149A
:10136B0060F2F5F07C3FEE7A00C39496C8948B4004
:10137B00230AC89469C8941A401A0AC89468C89476
:10138B001F40110AC8945AC89425400805F07A00EA
:10139B00CDC2E7CDC0F08C3E8D3F8E408F41EA230E
:1013AB0023C0E0242BF582E43413F583120E66126E
:1013BB0009AFECC0E0EDC0E0EEC0E0EFC0E0120E14
:1013CB0056A83EA93FAA40AB411209ABD0E0FBD0D7
:1013DB00E0FAD0E0F9D0E0B2E7F8120C968C3E8D33
:1013EB003F8E408F4190131B7403120DA3A83EA98F
:1013FB003FAA40AB41120800D0E0600F2437F582C2
:10140B00E43413F583120E661209AF8C3E8D3F8EBA
:10141B00408F41D0E0C3947FFDE49400FC12090B94
:10142B007B187A727931783F120800A83EA93FAA3F
:10143B0040AB411209AF30000B7BD97A5B79DE7878
:05144B003E1208002222
:100C9300020983EC5D046005E859047003020979D5
:100CA300120944580460F6EC4860F2EC7004FDFE4F
:100CB300FF22C860DB2481C85009C3986002500634
:100CC3000209809850CAF582E9294B4A7005AB8224
:100CD30002096F75F0007C1A7880C3EF9BEE9AEDE2
:100CE30099400DC3EF9BFFEE9AFEED99FDE842F0AC
:100CF300DC23ACF0D0E0FFD0E0FED0E0FDAB8220FF
:100D0300E7101BEB60BAEC2CFCEF33FFEE33FEED88
:100D130033FD02095BE803F830E705C0F075F00026
:100D2300EF2FFFEE33FEED33FD40B830E7C280AA6C
:100D33003F8000004120000042C80000447A0000C8
:100D4300461C400047C35000497424004B1896804A
:100D53004CBEBC205A0E1BCA6753C21C749DC5AE41
:100D6300FB60065407601C2323120D91EB5438607B
:100D730009120D7D120D8C120800ECF8EDF9EEFA54
:100D8300EFCB22EB120D8C80F1543803241C900D11
:100D930033FE93FC0EEE93FD0EEE930ECE93FF22E5
:100DA300C0E0EFFBEEFAEDF9ECF8120800D0E0F545
:100DB300F0EFFBEEFAEDF9ECF8120E56A3A3A3A3A2
:100DC300E8C0E0E9C0E0EAC0E0EBC0E0C0F0120830
:100DD30000120E66A3A3A3A31209AFD0F0D0E0FBC9
:0D0DE300D0E0FAD0E0F9D0E0F8D5F0D4224D
:030000000217A143
:0C17A100787FE4F6D8FD75814F02160138
:100DF000BB010689828A83E0225002E722BBFE0201
:090E0000E32289828A83E4932233
:100E0900BB010CE58229F582E5833AF583E022509E
:100E190006E92582F8E622BBFE06E92582F8E222E8
:0D0E2900E58229F582E5833AF583E4932202
:100E3600BB010689828A83F0225002F722BBFE019B
:020E4600F32295
:0E0E4800C3E49FFFE49EFEE49DFDE49CFC22BB
:100E5600E493FC740193FD740293FE740393FF22E2
:100E6600E493F8740193F9740293FA740393FB22E2
:100E7600FAE6FB0808E6F925F0F618E6CA3AF6227D
:100E8600D083D082F8E4937012740193700DA3A3FB
:100E960093F8740193F5828883E47374029368600F
:060EA600EFA3A3A380DF0F
:10171900EFB40A07740D121724740A309811A899A6
:10172900B8130CC2983098FDA899C298B811F63030
:0717390099FDC299F5992208
:00000001FF
