:1000000002005C758DFD758BFD759850D28E22F5C2
:10001000993099FDC2992275F00A842430110FE5B8
:10002000F02430110F22C4540F1135110FED540F6D
:100030001135110F222430B43A022407227A057BAD
:100040002800DBFDDAF922E58CFD1126E58AFD1199
:100050002622E4936005110FA380F72275892111F0
:100060000320B2FD758C00758A00D28C790020B215
:1000700026113D113D099000A01152E91117740D90
:10008000110F740A110F9000A711521147740D112E
:100090000F740A110F80D7C28C9000AF115280C12B
:1000A00048656C643A200054696D65723A200042DC
:1000B0007574746F6E2052656C65617365640D0AAA
:0100C000003F
:00000001FF
