:100000000200AA79FF7AFFDAFED9FA22C295C296D7
:10001000D297F5B01103C29722D295C296D297F526
:10002000B01103C297227438110C740E110C7401B4
:10003000110C7406110C22E49360051119A380F7CA
:100040002275F06484FCE5F075F00A84FDAEF0ECF6
:10005000600424301119ED6006243011198009EC78
:100060007006743011198005EE2430111922F5F054
:10007000C4540F11801119E5F0540F118011192289
:0D008000C082C0839000E793D083D082221D
:090091007A057B2800DBFDDAF999
:10009E0022000000000000000000002211267A5607
:1000AE007B56EA2BFE9000DB1137EE116E74C011F9
:1000BE000C9000E11137EE11417401110C11038007
:1000CE00E448454C4C4F5F574F524C4400484558FE
:1000DE003A20004445433A2000303132333435362D
:0900EE00373839414243444546CC
:00000001FF
