:100000000200A279FF7AFFDAFED9FA22C292C293E5
:10001000D294F5B01103C29422D292C293D294F535
:10002000B01103C294227438110C740E110C7401B7
:10003000110C7406110C22E49360051119A380F7CA
:100040002275F06484FCE5F075F00A84FDAEF0ECF6
:10005000600424301119ED6006243011198009EC78
:100060007006743011198005EE2430111922F5F054
:10007000C4540F11801119E5F0540F118011192289
:10008000C082C0839000DF93D083D082227A057B28
:100090002800DBFDDAF9220000000000000000006B
:1000A000002211267A567B56EA2BFE9000D3113798
:1000B000EE116E74C0110C9000D91137EE1141741D
:1000C00001110C110380DD48454C4C4F5F574F52D6
:1000D0004C44004845583A20004445433A200030FB
:0F00E0003132333435363738394142434445469F
:00000001FF
