:100000000200B779FF7AFFDAFED9FA22C292C293D0
:10001000D294F5B01103C29422D292C293D294F535
:10002000B01103C294227438110C740E110C7401B7
:10003000110C7406110C22E49360051119A380F7CA
:10004000227401110C11032275F06484FCE5F07533
:10005000F00A84FDAEF0EC600424301119ED600666
:10006000243011198009EC7006743011198005EEE6
:100070002430111922F5F0C4540F11871119E5F03D
:10008000540F1187111922C082C0839001A793D009
:1000900083D082227A647B64790E00D9FDDBF9DAA1
:1000A000F5227A057B2800DBFDDAF922000000004A
:1000B00000000000000022758901C28C758A00755D
:1000C0008C00C2A2C2A3C2A4C2A5C2A6C2A7C2A0DB
:1000D000C2A1C291C290C292C293C294C2B0112670
:1000E000900192113711A21141D29111ACC29130FD
:1000F00090FDC28DC28CD28C20900ED8FBD9F98095
:1001000002C293C28CD29380E02090FDC28DC28C3B
:10011000E58AF8E58CF9888289837F00C3E58294BB
:1001200035F582E5839400F58340030F80EE75A0DA
:1001300000EFB41402D2A2402FD2A2B42802D2A35C
:100140004026D2A3B43C02D2A4401DD2A4B44B0298
:10015000D2A54014D2A5B45A02D2A6400BD2A6B45E
:100160006402D2A74002D2A790018E1137E58C110C
:1001700075E58A117574C0110C9001A31137EF1148
:1001800048758A00758C00119411410200E9503ABB
:10019000200050726F6772616D20537461727469D0
:1001A0006E6700443A200030313233343536373808
:0701B000394142434445467A
:00000001FF
