:1000000002003C0000000000000000000022758D8E
:10001000FD758BFD759850D28E22F5993099FDC2F1
:100020009922E4936005111AA380F722EF75F00A74
:10003000842430111AE5F02430111A22758921C266
:100040008C110EC2A0C2A1C2A2C2A3C2A4C2A5C2E8
:10005000A6C2A7C291C290D2911103C2912090FD75
:10006000C28DC28CD28CA90FA82320900ED8FBD9A8
:10007000F98002C297C28CD29780DCC28C118202B6
:100080000175C297E58AF8E58CF9888289837F003B
:1000900090018F1122C3E5829458F582E583940084
:1000A000F58340030F80EEE975F064842430111A63
:1000B000E5F075F00A842430111AE5F02430111AA5
:1000C000743A111AE875F064842430111AE5F07559
:1000D000F00A842430111AE5F02430111A740D113D
:1000E0001A740A111A90017E1122112C90018911A3
:1000F00022C2A0C2A1C2A2C2A3C2A4C2A5C2A6C259
:10010000A77583027582443161403E758304758210
:1001100088316140377583067582CC316140307516
:1001200083097582103161402975830B75825431C2
:1001300061402275830D7582983161401B75830F74
:100140007582DC316140148015D2A022D2A122D266
:10015000A222D2A322D2A422D2A522D2A622D2A700
:1001600022E9C395836004400A8006E8C395824073
:1001700002C322D322758A00758C0002005744699D
:100180007374616E63653A200020636D0D0A00543C
:07019000696D65723A200061
:00000001FF
