:100000000200A779FF7AFFDAFED9FA22C292C293E0
:10001000D294F5B01103C29422D292C293D294F535
:10002000B0C294227438110C740E110C7401110CAE
:100030007406110C22E49360051119A380F7227451
:1000400001110C11032275F06484FCE5F075F00ACF
:1000500084FDAEF0EC600424301119ED600624300C
:1000600011198009EC7006743011198005EE2430E6
:10007000111922F5F0C4540F11851119E5F0540F30
:100080001185111922C082C0839001A493D083D01E
:1000900082227A057B2800DBFDDAF92200000000CD
:1000A00000000000000022758901C28C758A00756D
:1000B0008C00C2A0C2A1C2A2C2A3C2A4C2A5C2A6F1
:1000C000C2A7C291C290C292C293C294C2B011247C
:1000D00090018811351192113FD291119CC291303B
:1000E00090FDC28DC28CD28C20900ED8FBD9F980A5
:1000F00002C293C28CD29380E02090FDC28DC28C4C
:100100009001801135E58C1173E58A1173E58AF849
:10011000E58CF9888289837F00C3E5829435F58276
:10012000E5839400F58340030F80EE74C0110C90BA
:1001300001991135EF114675A000EFB40A02D2A063
:100140004033D2A0B41402D2A1402AD2A1B41E02DC
:10015000D2A24021D2A2B42802D2A34018D2A3B482
:100160003202D2A4400FD2A4B43C02D2A54006D29F
:10017000A5D2A6D2A7758A00758C00113F0200D9BE
:1001800050756C73653A200050726F6772616D2014
:100190005374617274696E670044697374616E634D
:1001A000653A200030313233343536373839414200
:0401B0004344454639
:00000001FF
