:100000000200B579FF7AFFDAFED9FA22C292C293D2
:10001000D294F5B01103C29422D292C293D294F535
:10002000B0C294227438110C740E110C7401110CAE
:100030007406110C22E49360051119A380F7227451
:1000400001110C11032275F06484FCE5F075F00ACF
:1000500084FDAEF0EC600424301119ED600624300C
:1000600011198009EC7006743011198005EE2430E6
:10007000111922F5F0C4540F11851119E5F0540F30
:100080001185111922C082C0839001A393D083D01F
:1000900082227A647B64790E00D9FDDBF9DAF522DD
:1000A0007A057B2800DBFDDAF92200000000000061
:1000B0000000000022758901C28C758A00758C00D1
:1000C000C2A2C2A3C2A4C2A5C2A6C2A7C2A0C2A104
:1000D000C291C290C292C293C294C2B01124900144
:1000E0008E113511A0113FD29111AAC2913090FD0D
:1000F000C28DC28CD28C20900ED8FBD9F98002C25E
:1001000093C28CD29380E02090FDC28DC28CE58A90
:10011000F8E58CF9888289837F00C3E5829435F500
:1001200082E5839400F58340030F80EE75A000EF15
:10013000B41402D2A2402FD2A2B42802D2A34026E5
:10014000D2A3B43C02D2A4401DD2A4B44B02D2A587
:100150004014D2A5B45A02D2A6400BD2A6B464026F
:10016000D2A74002D2A790018A1135E58C1173E520
:100170008A117374C0110C90019F1135EF114675EF
:100180008A00758C00113F0200E7503A200050723F
:100190006F6772616D205374617274696E67004499
:1001A0003A20003031323334353637383941424322
:0301B0004445467D
:00000001FF
