:1000000002003B0000000000000000000022758D8F
:10001000FD758BFD759850D28E22F5993099FDC2F1
:100020009922E4936005111AA380F72275F00A84DF
:100030002430111AE5F02430111A22758921C28C5E
:10004000110EC2A0C2A1C2A2C2A3C2A4C2A5C2A6CE
:10005000C2A7C291C290D2911103C2912090FDC259
:100060008DC28CD28CA90FA82320900ED8FBD9F971
:100070008002C297C28CD29780DC11031103C28C1C
:10008000118502014CC297E58AF8E58CF974008865
:100090008289837F00C3E582943AF582E5839400E8
:1000A000F58340030F80EE9001551122EF112C9043
:1000B000016011229001661122E58C112CE58A1154
:1000C0002C740090016E1122C2A0C2A1C2A2C2A3D0
:1000D000C2A4C2A5C2A6C2A77583027582443138E4
:1000E000403E7583047582883138403775830675C4
:1000F00082CC3138403075830975821031384029FF
:1001000075830B7582543138402275830D75829842
:100110003138401B75830F7582DC313840148015EF
:10012000D2A022D2A122D2A222D2A322D2A422D20F
:10013000A522D2A622D2A722E9C395836004400A51
:100140008006E8C395824002C322D322758A0075D7
:100150008C0002005644697374616E63653A200036
:1001600020636D0D0A0074696D65723A20002000ED
:00000001FF
