:1000000002003F0000000000000000000022758D8B
:10001000FD758BFD759850D28E22F5993099FDC2F1
:100020009922900144E4936005111AA380F722EF0E
:1000300075F00A842430111AE5F02430111A227563
:100040008921758DFD758BFDC28C110EC2A0C2A1D8
:10005000C2A2C2A3C2A4C2A5C2A6C2A7C291C29094
:10006000D2911103C2912090FDC28DC28CD28CA975
:100070000FA82320900ED8FBD9F98002C297C28C1A
:10008000D29780DCC28C758A00758C0011910201B8
:1000900041C297E58AF8E58CF9888289837F00C39D
:1000A000E5829458F582E5839400F58340030F8040
:1000B000EE9001441122112F90014F1122C2A0C2D3
:1000C000A1C2A2C2A3C2A4C2A5C2A6C2A77583022E
:1000D000758244312D403E758304758288312D40F0
:1000E000377583067582CC312D4030758309758252
:1000F00010312D402975830B758254312D402275A6
:10010000830D758298312D401B75830F7582DC310C
:100110002D40148015D2A022D2A122D2A222D2A395
:1001200022D2A422D2A522D2A622D2A722E9C39506
:10013000836004400A8006E8C395824002C322D34C
:100140002202006044697374616E63653A20002086
:05015000636D0D0A00C3
:00000001FF
