:10000000020067758DFD758BFD759850D28E22F5B7
:10001000993099FDC2992275F00A842430110FE5B8
:10002000F02430110F22C4540F1135110FED540F6D
:100030001135110F222430B43A022407227A057BAD
:100040002800DBFDDAF922E58CFD1126E58AFD1199
:100050002622E4936005110FA380F7220000000020
:1000600000000000000022758921C28C758A00758D
:100070008C001103C2A0C2A4C2A1C2A3C2A2C29199
:10008000C2909000CD1152D291115CC2913090FD7E
:10009000C28DC28CD28C20900ED8FBD9F98002D2AE
:1000A000A2C28CC2A280E02090FDC28DC28C9000C2
:1000B000C511521147740D110F740A110F758A0082
:1000C000758C0080C250756C73653A200050726F59
:0E00D0006772616D205374617274696E67000F
:00000001FF
