:1000000002005D758DFD758BFD759850D28E22F5C1
:10001000993099FDC2992275F00A842430110FE5B8
:10002000F02430110F22C4540F1135110FED540F6D
:100030001135110F222430B43A02240722E58CFD39
:100040001126E58AFD112622E4936005110FA38095
:10005000F722000000000000000000002275892146
:10006000C28C758A00758C001103C2A0C2A1C2A205
:10007000C2A3C2A4C2A5C2A6C2A7C291C290900147
:10008000491148D2911152C2913090FDC28DC28C5B
:10009000D28C20900ED8FBD9F98002C293C28CD2A8
:1000A0009380E02090FDC28DC28C9001411148E503
:1000B0008C1117E58A1117740D110F740A110FE5D1
:1000C0008AF8E58CF9888289837A00C3E5829435C1
:1000D000F582E5839400F58340030A80EE90015A8F
:1000E0001148EA1117740D110F740A110FC2A0C242
:1000F000A1C2A2C2A3C2A4C2A5C2A6C2A7EAB40A50
:1001000002D2A04033D2A0B41402D2A1402AD2A17C
:10011000B41E02D2A24021D2A2B42802D2A3401817
:10012000D2A3B43202D2A4400FD2A4B43C02D2A5CE
:100130004006D2A5D2A6D2A7758A00758C0002000F
:100140008350756C73653A200050726F6772616DF1
:10015000205374617274696E670044697374616ED0
:0501600063653A200078
:00000001FF
